{
  "_format": "hh-sol-artifact-1",
  "contractName": "Marketplace",
  "sourceName": "src/backend/contracts/Marketplace.sol",
  "abi": [
    {
      "inputs": [
        {
          "internalType": "uint256",
          "name": "_feePercent",
          "type": "uint256"
        }
      ],
      "stateMutability": "nonpayable",
      "type": "constructor"
    },
    {
      "anonymous": false,
      "inputs": [
        {
          "indexed": false,
          "internalType": "uint256",
          "name": "itemId",
          "type": "uint256"
        },
        {
          "indexed": true,
          "internalType": "address",
          "name": "nft",
          "type": "address"
        },
        {
          "indexed": false,
          "internalType": "uint256",
          "name": "tokenId",
          "type": "uint256"
        },
        {
          "indexed": false,
          "internalType": "uint256",
          "name": "price",
          "type": "uint256"
        },
        {
          "indexed": true,
          "internalType": "address",
          "name": "seller",
          "type": "address"
        },
        {
          "indexed": true,
          "internalType": "address",
          "name": "buyer",
          "type": "address"
        },
        {
          "indexed": false,
          "internalType": "uint256",
          "name": "boughtDateTime",
          "type": "uint256"
        }
      ],
      "name": "Bought",
      "type": "event"
    },
    {
      "anonymous": false,
      "inputs": [
        {
          "indexed": true,
          "internalType": "uint256",
          "name": "itemId",
          "type": "uint256"
        },
        {
          "indexed": true,
          "internalType": "address",
          "name": "nft",
          "type": "address"
        },
        {
          "indexed": false,
          "internalType": "uint256",
          "name": "tokenId",
          "type": "uint256"
        },
        {
          "indexed": false,
          "internalType": "uint256",
          "name": "price",
          "type": "uint256"
        },
        {
          "indexed": true,
          "internalType": "address",
          "name": "seller",
          "type": "address"
        },
        {
          "indexed": false,
          "internalType": "uint256",
          "name": "offeredDateTime",
          "type": "uint256"
        }
      ],
      "name": "Offered",
      "type": "event"
    },
    {
      "inputs": [],
      "name": "feeAccount",
      "outputs": [
        {
          "internalType": "address payable",
          "name": "",
          "type": "address"
        }
      ],
      "stateMutability": "view",
      "type": "function"
    },
    {
      "inputs": [],
      "name": "feePercent",
      "outputs": [
        {
          "internalType": "uint256",
          "name": "",
          "type": "uint256"
        }
      ],
      "stateMutability": "view",
      "type": "function"
    },
    {
      "inputs": [
        {
          "internalType": "uint256",
          "name": "_itemId",
          "type": "uint256"
        }
      ],
      "name": "getTotalPrice",
      "outputs": [
        {
          "internalType": "uint256",
          "name": "",
          "type": "uint256"
        }
      ],
      "stateMutability": "view",
      "type": "function"
    },
    {
      "inputs": [],
      "name": "itemCount",
      "outputs": [
        {
          "internalType": "uint256",
          "name": "",
          "type": "uint256"
        }
      ],
      "stateMutability": "view",
      "type": "function"
    },
    {
      "inputs": [
        {
          "internalType": "uint256",
          "name": "",
          "type": "uint256"
        }
      ],
      "name": "items",
      "outputs": [
        {
          "internalType": "uint256",
          "name": "itemId",
          "type": "uint256"
        },
        {
          "internalType": "contract IERC721",
          "name": "nft",
          "type": "address"
        },
        {
          "internalType": "uint256",
          "name": "tokenId",
          "type": "uint256"
        },
        {
          "internalType": "uint256",
          "name": "price",
          "type": "uint256"
        },
        {
          "internalType": "address payable",
          "name": "seller",
          "type": "address"
        },
        {
          "internalType": "bool",
          "name": "sold",
          "type": "bool"
        }
      ],
      "stateMutability": "view",
      "type": "function"
    },
    {
      "inputs": [
        {
          "internalType": "contract IERC721",
          "name": "_nft",
          "type": "address"
        },
        {
          "internalType": "uint256",
          "name": "_tokenId",
          "type": "uint256"
        },
        {
          "internalType": "uint256",
          "name": "_price",
          "type": "uint256"
        },
        {
          "internalType": "uint256",
          "name": "offeredDateTime",
          "type": "uint256"
        }
      ],
      "name": "makeItem",
      "outputs": [],
      "stateMutability": "nonpayable",
      "type": "function"
    },
    {
      "inputs": [
        {
          "internalType": "uint256",
          "name": "_itemId",
          "type": "uint256"
        },
        {
          "internalType": "uint256",
          "name": "boughtDateTime",
          "type": "uint256"
        }
      ],
      "name": "purchaseItem",
      "outputs": [],
      "stateMutability": "payable",
      "type": "function"
    }
  ],
  "bytecode": "0x60c060405234801561001057600080fd5b5060405161123738038061123783398181016040528101906100329190610094565b60016000819055503373ffffffffffffffffffffffffffffffffffffffff1660808173ffffffffffffffffffffffffffffffffffffffff1660601b815250508060a08181525050506100de565b60008151905061008e816100c7565b92915050565b6000602082840312156100a657600080fd5b60006100b48482850161007f565b91505092915050565b6000819050919050565b6100d0816100bd565b81146100db57600080fd5b50565b60805160601c60a051611123610114600039600081816104ba015261056b0152600081816101bc015261079101526111236000f3fe6080604052600436106100705760003560e01c80637fd6f15c1161004e5780637fd6f15c146100f4578063bfb231d21461011f578063ca7dd37514610161578063e06756981461019e57610070565b806365e17c9d14610075578063696aae08146100a05780636bfb0d01146100c9575b600080fd5b34801561008157600080fd5b5061008a6101ba565b6040516100979190610b85565b60405180910390f35b3480156100ac57600080fd5b506100c760048036038101906100c291906109c3565b6101de565b005b3480156100d557600080fd5b506100de6104b2565b6040516100eb9190610c77565b60405180910390f35b34801561010057600080fd5b506101096104b8565b6040516101169190610c77565b60405180910390f35b34801561012b57600080fd5b5061014660048036038101906101419190610a26565b6104dc565b60405161015896959493929190610c92565b60405180910390f35b34801561016d57600080fd5b5061018860048036038101906101839190610a26565b610565565b6040516101959190610c77565b60405180910390f35b6101b860048036038101906101b39190610a4f565b6105c8565b005b7f000000000000000000000000000000000000000000000000000000000000000081565b60026000541415610224576040517f08c379a000000000000000000000000000000000000000000000000000000000815260040161021b90610c57565b60405180910390fd5b60026000819055506000821161026f576040517f08c379a000000000000000000000000000000000000000000000000000000000815260040161026690610c17565b60405180910390fd5b6001600081548092919061028290610f25565b91905055508373ffffffffffffffffffffffffffffffffffffffff166323b872dd3330866040518463ffffffff1660e01b81526004016102c493929190610ba0565b600060405180830381600087803b1580156102de57600080fd5b505af11580156102f2573d6000803e3d6000fd5b505050506040518060c0016040528060015481526020018573ffffffffffffffffffffffffffffffffffffffff1681526020018481526020018381526020013373ffffffffffffffffffffffffffffffffffffffff168152602001600015158152506002600060015481526020019081526020016000206000820151816000015560208201518160010160006101000a81548173ffffffffffffffffffffffffffffffffffffffff021916908373ffffffffffffffffffffffffffffffffffffffff160217905550604082015181600201556060820151816003015560808201518160040160006101000a81548173ffffffffffffffffffffffffffffffffffffffff021916908373ffffffffffffffffffffffffffffffffffffffff16021790555060a08201518160040160146101000a81548160ff0219169083151502179055509050503373ffffffffffffffffffffffffffffffffffffffff168473ffffffffffffffffffffffffffffffffffffffff166001547f68691bf1ff4da1d17e26d154d655adee05f2c30e99638bfce346224ffd49099586868660405161049c93929190610cf3565b60405180910390a4600160008190555050505050565b60015481565b7f000000000000000000000000000000000000000000000000000000000000000081565b60026020528060005260406000206000915090508060000154908060010160009054906101000a900473ffffffffffffffffffffffffffffffffffffffff16908060020154908060030154908060040160009054906101000a900473ffffffffffffffffffffffffffffffffffffffff16908060040160149054906101000a900460ff16905086565b600060647f000000000000000000000000000000000000000000000000000000000000000060646105969190610d80565b60026000858152602001908152602001600020600301546105b79190610e07565b6105c19190610dd6565b9050919050565b6002600054141561060e576040517f08c379a000000000000000000000000000000000000000000000000000000000815260040161060590610c57565b60405180910390fd5b6002600081905550600061062183610565565b9050600060026000858152602001908152602001600020905060008411801561064c57506001548411155b61068b576040517f08c379a000000000000000000000000000000000000000000000000000000000815260040161068290610bf7565b60405180910390fd5b813410156106ce576040517f08c379a00000000000000000000000000000000000000000000000000000000081526004016106c590610c37565b60405180910390fd5b8060040160149054906101000a900460ff1615610720576040517f08c379a000000000000000000000000000000000000000000000000000000000815260040161071790610bd7565b60405180910390fd5b8060040160009054906101000a900473ffffffffffffffffffffffffffffffffffffffff1673ffffffffffffffffffffffffffffffffffffffff166108fc82600301549081150290604051600060405180830381858888f1935050505015801561078e573d6000803e3d6000fd5b507f000000000000000000000000000000000000000000000000000000000000000073ffffffffffffffffffffffffffffffffffffffff166108fc8260030154846107d99190610e61565b9081150290604051600060405180830381858888f19350505050158015610804573d6000803e3d6000fd5b5060018160040160146101000a81548160ff0219169083151502179055508060010160009054906101000a900473ffffffffffffffffffffffffffffffffffffffff1673ffffffffffffffffffffffffffffffffffffffff166323b872dd303384600201546040518463ffffffff1660e01b815260040161088793929190610ba0565b600060405180830381600087803b1580156108a157600080fd5b505af11580156108b5573d6000803e3d6000fd5b505050503373ffffffffffffffffffffffffffffffffffffffff168160040160009054906101000a900473ffffffffffffffffffffffffffffffffffffffff1673ffffffffffffffffffffffffffffffffffffffff168260010160009054906101000a900473ffffffffffffffffffffffffffffffffffffffff1673ffffffffffffffffffffffffffffffffffffffff167fd78abc9e0d4dfe3f1e95dc2c5f8a6e6a3af57ab1174162e12eb01b661099ae008785600201548660030154896040516109839493929190610d2a565b60405180910390a4505060016000819055505050565b6000813590506109a8816110bf565b92915050565b6000813590506109bd816110d6565b92915050565b600080600080608085870312156109d957600080fd5b60006109e787828801610999565b94505060206109f8878288016109ae565b9350506040610a09878288016109ae565b9250506060610a1a878288016109ae565b91505092959194509250565b600060208284031215610a3857600080fd5b6000610a46848285016109ae565b91505092915050565b60008060408385031215610a6257600080fd5b6000610a70858286016109ae565b9250506020610a81858286016109ae565b9150509250929050565b610a9481610ea7565b82525050565b610aa381610e95565b82525050565b610ab281610eb9565b82525050565b610ac181610f01565b82525050565b6000610ad4601183610d6f565b9150610adf82610fcc565b602082019050919050565b6000610af7601383610d6f565b9150610b0282610ff5565b602082019050919050565b6000610b1a601f83610d6f565b9150610b258261101e565b602082019050919050565b6000610b3d603783610d6f565b9150610b4882611047565b604082019050919050565b6000610b60601f83610d6f565b9150610b6b82611096565b602082019050919050565b610b7f81610ef7565b82525050565b6000602082019050610b9a6000830184610a8b565b92915050565b6000606082019050610bb56000830186610a9a565b610bc26020830185610a9a565b610bcf6040830184610b76565b949350505050565b60006020820190508181036000830152610bf081610ac7565b9050919050565b60006020820190508181036000830152610c1081610aea565b9050919050565b60006020820190508181036000830152610c3081610b0d565b9050919050565b60006020820190508181036000830152610c5081610b30565b9050919050565b60006020820190508181036000830152610c7081610b53565b9050919050565b6000602082019050610c8c6000830184610b76565b92915050565b600060c082019050610ca76000830189610b76565b610cb46020830188610ab8565b610cc16040830187610b76565b610cce6060830186610b76565b610cdb6080830185610a8b565b610ce860a0830184610aa9565b979650505050505050565b6000606082019050610d086000830186610b76565b610d156020830185610b76565b610d226040830184610b76565b949350505050565b6000608082019050610d3f6000830187610b76565b610d4c6020830186610b76565b610d596040830185610b76565b610d666060830184610b76565b95945050505050565b600082825260208201905092915050565b6000610d8b82610ef7565b9150610d9683610ef7565b9250827fffffffffffffffffffffffffffffffffffffffffffffffffffffffffffffffff03821115610dcb57610dca610f6e565b5b828201905092915050565b6000610de182610ef7565b9150610dec83610ef7565b925082610dfc57610dfb610f9d565b5b828204905092915050565b6000610e1282610ef7565b9150610e1d83610ef7565b9250817fffffffffffffffffffffffffffffffffffffffffffffffffffffffffffffffff0483118215151615610e5657610e55610f6e565b5b828202905092915050565b6000610e6c82610ef7565b9150610e7783610ef7565b925082821015610e8a57610e89610f6e565b5b828203905092915050565b6000610ea082610ed7565b9050919050565b6000610eb282610ed7565b9050919050565b60008115159050919050565b6000610ed082610e95565b9050919050565b600073ffffffffffffffffffffffffffffffffffffffff82169050919050565b6000819050919050565b6000610f0c82610f13565b9050919050565b6000610f1e82610ed7565b9050919050565b6000610f3082610ef7565b91507fffffffffffffffffffffffffffffffffffffffffffffffffffffffffffffffff821415610f6357610f62610f6e565b5b600182019050919050565b7f4e487b7100000000000000000000000000000000000000000000000000000000600052601160045260246000fd5b7f4e487b7100000000000000000000000000000000000000000000000000000000600052601260045260246000fd5b7f6974656d20616c726561647920736f6c64000000000000000000000000000000600082015250565b7f6974656d20646f65736e27742065786973747300000000000000000000000000600082015250565b7f5072696365206d7573742062652067726561746572207468616e207a65726f00600082015250565b7f6e6f7420656e6f75676820657468657220746f20636f7665722074686520697460008201527f656d20707269636520616e64206d61726b657420666565000000000000000000602082015250565b7f5265656e7472616e637947756172643a207265656e7472616e742063616c6c00600082015250565b6110c881610ec5565b81146110d357600080fd5b50565b6110df81610ef7565b81146110ea57600080fd5b5056fea2646970667358221220ef977a85c206f7db49d69c89c551521732024de186580d61405ca743a9f91ad664736f6c63430008040033",
  "linkReferences": {},
  "deployedLinkReferences": {}
}