{
  "_format": "hh-sol-artifact-1",
  "contractName": "Marketplace",
  "sourceName": "src/backend/contracts/Marketplace.sol",
  "abi": [
    {
      "inputs": [
        {
          "internalType": "uint256",
          "name": "_feePercent",
          "type": "uint256"
        }
      ],
      "stateMutability": "nonpayable",
      "type": "constructor"
    },
    {
      "anonymous": false,
      "inputs": [
        {
          "indexed": false,
          "internalType": "uint256",
          "name": "itemId",
          "type": "uint256"
        },
        {
          "indexed": false,
          "internalType": "address",
          "name": "nft",
          "type": "address"
        },
        {
          "indexed": true,
          "internalType": "uint256",
          "name": "tokenId",
          "type": "uint256"
        },
        {
          "indexed": false,
          "internalType": "uint256",
          "name": "price",
          "type": "uint256"
        },
        {
          "indexed": true,
          "internalType": "address",
          "name": "seller",
          "type": "address"
        },
        {
          "indexed": true,
          "internalType": "address",
          "name": "buyer",
          "type": "address"
        },
        {
          "indexed": false,
          "internalType": "uint256",
          "name": "boughtDateTime",
          "type": "uint256"
        }
      ],
      "name": "Bought",
      "type": "event"
    },
    {
      "anonymous": false,
      "inputs": [
        {
          "indexed": true,
          "internalType": "uint256",
          "name": "itemId",
          "type": "uint256"
        },
        {
          "indexed": false,
          "internalType": "address",
          "name": "nft",
          "type": "address"
        },
        {
          "indexed": true,
          "internalType": "uint256",
          "name": "tokenId",
          "type": "uint256"
        },
        {
          "indexed": false,
          "internalType": "uint256",
          "name": "price",
          "type": "uint256"
        },
        {
          "indexed": true,
          "internalType": "address",
          "name": "seller",
          "type": "address"
        },
        {
          "indexed": false,
          "internalType": "uint256",
          "name": "offeredDateTime",
          "type": "uint256"
        }
      ],
      "name": "Offered",
      "type": "event"
    },
    {
      "inputs": [],
      "name": "feeAccount",
      "outputs": [
        {
          "internalType": "address payable",
          "name": "",
          "type": "address"
        }
      ],
      "stateMutability": "view",
      "type": "function"
    },
    {
      "inputs": [],
      "name": "feePercent",
      "outputs": [
        {
          "internalType": "uint256",
          "name": "",
          "type": "uint256"
        }
      ],
      "stateMutability": "view",
      "type": "function"
    },
    {
      "inputs": [
        {
          "internalType": "uint256",
          "name": "_itemId",
          "type": "uint256"
        }
      ],
      "name": "getTotalPrice",
      "outputs": [
        {
          "internalType": "uint256",
          "name": "",
          "type": "uint256"
        }
      ],
      "stateMutability": "view",
      "type": "function"
    },
    {
      "inputs": [],
      "name": "itemCount",
      "outputs": [
        {
          "internalType": "uint256",
          "name": "",
          "type": "uint256"
        }
      ],
      "stateMutability": "view",
      "type": "function"
    },
    {
      "inputs": [
        {
          "internalType": "uint256",
          "name": "",
          "type": "uint256"
        }
      ],
      "name": "items",
      "outputs": [
        {
          "internalType": "uint256",
          "name": "itemId",
          "type": "uint256"
        },
        {
          "internalType": "contract IERC721",
          "name": "nft",
          "type": "address"
        },
        {
          "internalType": "uint256",
          "name": "tokenId",
          "type": "uint256"
        },
        {
          "internalType": "uint256",
          "name": "price",
          "type": "uint256"
        },
        {
          "internalType": "address payable",
          "name": "seller",
          "type": "address"
        },
        {
          "internalType": "bool",
          "name": "sold",
          "type": "bool"
        }
      ],
      "stateMutability": "view",
      "type": "function"
    },
    {
      "inputs": [
        {
          "internalType": "contract IERC721",
          "name": "_nft",
          "type": "address"
        },
        {
          "internalType": "uint256",
          "name": "_tokenId",
          "type": "uint256"
        },
        {
          "internalType": "uint256",
          "name": "_price",
          "type": "uint256"
        },
        {
          "internalType": "uint256",
          "name": "offeredDateTime",
          "type": "uint256"
        }
      ],
      "name": "makeItem",
      "outputs": [],
      "stateMutability": "nonpayable",
      "type": "function"
    },
    {
      "inputs": [
        {
          "internalType": "uint256",
          "name": "_itemId",
          "type": "uint256"
        },
        {
          "internalType": "uint256",
          "name": "boughtDateTime",
          "type": "uint256"
        }
      ],
      "name": "purchaseItem",
      "outputs": [],
      "stateMutability": "payable",
      "type": "function"
    }
  ],
  "bytecode": "0x60c060405234801561001057600080fd5b5060405161120b38038061120b83398181016040528101906100329190610094565b60016000819055503373ffffffffffffffffffffffffffffffffffffffff1660808173ffffffffffffffffffffffffffffffffffffffff1660601b815250508060a08181525050506100de565b60008151905061008e816100c7565b92915050565b6000602082840312156100a657600080fd5b60006100b48482850161007f565b91505092915050565b6000819050919050565b6100d0816100bd565b81146100db57600080fd5b50565b60805160601c60a0516110f7610114600039600081816104a401526105550152600081816101bc015261077b01526110f76000f3fe6080604052600436106100705760003560e01c80637fd6f15c1161004e5780637fd6f15c146100f4578063bfb231d21461011f578063ca7dd37514610161578063e06756981461019e57610070565b806365e17c9d14610075578063696aae08146100a05780636bfb0d01146100c9575b600080fd5b34801561008157600080fd5b5061008a6101ba565b6040516100979190610b59565b60405180910390f35b3480156100ac57600080fd5b506100c760048036038101906100c29190610997565b6101de565b005b3480156100d557600080fd5b506100de61049c565b6040516100eb9190610c82565b60405180910390f35b34801561010057600080fd5b506101096104a2565b6040516101169190610c82565b60405180910390f35b34801561012b57600080fd5b50610146600480360381019061014191906109fa565b6104c6565b60405161015896959493929190610ce2565b60405180910390f35b34801561016d57600080fd5b50610188600480360381019061018391906109fa565b61054f565b6040516101959190610c82565b60405180910390f35b6101b860048036038101906101b39190610a23565b6105b2565b005b7f000000000000000000000000000000000000000000000000000000000000000081565b60026000541415610224576040517f08c379a000000000000000000000000000000000000000000000000000000000815260040161021b90610c62565b60405180910390fd5b60026000819055506000821161026f576040517f08c379a000000000000000000000000000000000000000000000000000000000815260040161026690610c22565b60405180910390fd5b6001600081548092919061028290610ef9565b91905055508373ffffffffffffffffffffffffffffffffffffffff166323b872dd3330866040518463ffffffff1660e01b81526004016102c493929190610b74565b600060405180830381600087803b1580156102de57600080fd5b505af11580156102f2573d6000803e3d6000fd5b505050506040518060c0016040528060015481526020018573ffffffffffffffffffffffffffffffffffffffff1681526020018481526020018381526020013373ffffffffffffffffffffffffffffffffffffffff168152602001600015158152506002600060015481526020019081526020016000206000820151816000015560208201518160010160006101000a81548173ffffffffffffffffffffffffffffffffffffffff021916908373ffffffffffffffffffffffffffffffffffffffff160217905550604082015181600201556060820151816003015560808201518160040160006101000a81548173ffffffffffffffffffffffffffffffffffffffff021916908373ffffffffffffffffffffffffffffffffffffffff16021790555060a08201518160040160146101000a81548160ff0219169083151502179055509050503373ffffffffffffffffffffffffffffffffffffffff16836001547f68691bf1ff4da1d17e26d154d655adee05f2c30e99638bfce346224ffd49099587868660405161048693929190610bab565b60405180910390a4600160008190555050505050565b60015481565b7f000000000000000000000000000000000000000000000000000000000000000081565b60026020528060005260406000206000915090508060000154908060010160009054906101000a900473ffffffffffffffffffffffffffffffffffffffff16908060020154908060030154908060040160009054906101000a900473ffffffffffffffffffffffffffffffffffffffff16908060040160149054906101000a900460ff16905086565b600060647f000000000000000000000000000000000000000000000000000000000000000060646105809190610d54565b60026000858152602001908152602001600020600301546105a19190610ddb565b6105ab9190610daa565b9050919050565b600260005414156105f8576040517f08c379a00000000000000000000000000000000000000000000000000000000081526004016105ef90610c62565b60405180910390fd5b6002600081905550600061060b8361054f565b9050600060026000858152602001908152602001600020905060008411801561063657506001548411155b610675576040517f08c379a000000000000000000000000000000000000000000000000000000000815260040161066c90610c02565b60405180910390fd5b813410156106b8576040517f08c379a00000000000000000000000000000000000000000000000000000000081526004016106af90610c42565b60405180910390fd5b8060040160149054906101000a900460ff161561070a576040517f08c379a000000000000000000000000000000000000000000000000000000000815260040161070190610be2565b60405180910390fd5b8060040160009054906101000a900473ffffffffffffffffffffffffffffffffffffffff1673ffffffffffffffffffffffffffffffffffffffff166108fc82600301549081150290604051600060405180830381858888f19350505050158015610778573d6000803e3d6000fd5b507f000000000000000000000000000000000000000000000000000000000000000073ffffffffffffffffffffffffffffffffffffffff166108fc8260030154846107c39190610e35565b9081150290604051600060405180830381858888f193505050501580156107ee573d6000803e3d6000fd5b5060018160040160146101000a81548160ff0219169083151502179055508060010160009054906101000a900473ffffffffffffffffffffffffffffffffffffffff1673ffffffffffffffffffffffffffffffffffffffff166323b872dd303384600201546040518463ffffffff1660e01b815260040161087193929190610b74565b600060405180830381600087803b15801561088b57600080fd5b505af115801561089f573d6000803e3d6000fd5b505050503373ffffffffffffffffffffffffffffffffffffffff168160040160009054906101000a900473ffffffffffffffffffffffffffffffffffffffff1673ffffffffffffffffffffffffffffffffffffffff1682600201547fd78abc9e0d4dfe3f1e95dc2c5f8a6e6a3af57ab1174162e12eb01b661099ae00878560010160009054906101000a900473ffffffffffffffffffffffffffffffffffffffff168660030154896040516109579493929190610c9d565b60405180910390a4505060016000819055505050565b60008135905061097c81611093565b92915050565b600081359050610991816110aa565b92915050565b600080600080608085870312156109ad57600080fd5b60006109bb8782880161096d565b94505060206109cc87828801610982565b93505060406109dd87828801610982565b92505060606109ee87828801610982565b91505092959194509250565b600060208284031215610a0c57600080fd5b6000610a1a84828501610982565b91505092915050565b60008060408385031215610a3657600080fd5b6000610a4485828601610982565b9250506020610a5585828601610982565b9150509250929050565b610a6881610e7b565b82525050565b610a7781610e69565b82525050565b610a8681610e8d565b82525050565b610a9581610ed5565b82525050565b6000610aa8601183610d43565b9150610ab382610fa0565b602082019050919050565b6000610acb601383610d43565b9150610ad682610fc9565b602082019050919050565b6000610aee601f83610d43565b9150610af982610ff2565b602082019050919050565b6000610b11603783610d43565b9150610b1c8261101b565b604082019050919050565b6000610b34601f83610d43565b9150610b3f8261106a565b602082019050919050565b610b5381610ecb565b82525050565b6000602082019050610b6e6000830184610a5f565b92915050565b6000606082019050610b896000830186610a6e565b610b966020830185610a6e565b610ba36040830184610b4a565b949350505050565b6000606082019050610bc06000830186610a6e565b610bcd6020830185610b4a565b610bda6040830184610b4a565b949350505050565b60006020820190508181036000830152610bfb81610a9b565b9050919050565b60006020820190508181036000830152610c1b81610abe565b9050919050565b60006020820190508181036000830152610c3b81610ae1565b9050919050565b60006020820190508181036000830152610c5b81610b04565b9050919050565b60006020820190508181036000830152610c7b81610b27565b9050919050565b6000602082019050610c976000830184610b4a565b92915050565b6000608082019050610cb26000830187610b4a565b610cbf6020830186610a6e565b610ccc6040830185610b4a565b610cd96060830184610b4a565b95945050505050565b600060c082019050610cf76000830189610b4a565b610d046020830188610a8c565b610d116040830187610b4a565b610d1e6060830186610b4a565b610d2b6080830185610a5f565b610d3860a0830184610a7d565b979650505050505050565b600082825260208201905092915050565b6000610d5f82610ecb565b9150610d6a83610ecb565b9250827fffffffffffffffffffffffffffffffffffffffffffffffffffffffffffffffff03821115610d9f57610d9e610f42565b5b828201905092915050565b6000610db582610ecb565b9150610dc083610ecb565b925082610dd057610dcf610f71565b5b828204905092915050565b6000610de682610ecb565b9150610df183610ecb565b9250817fffffffffffffffffffffffffffffffffffffffffffffffffffffffffffffffff0483118215151615610e2a57610e29610f42565b5b828202905092915050565b6000610e4082610ecb565b9150610e4b83610ecb565b925082821015610e5e57610e5d610f42565b5b828203905092915050565b6000610e7482610eab565b9050919050565b6000610e8682610eab565b9050919050565b60008115159050919050565b6000610ea482610e69565b9050919050565b600073ffffffffffffffffffffffffffffffffffffffff82169050919050565b6000819050919050565b6000610ee082610ee7565b9050919050565b6000610ef282610eab565b9050919050565b6000610f0482610ecb565b91507fffffffffffffffffffffffffffffffffffffffffffffffffffffffffffffffff821415610f3757610f36610f42565b5b600182019050919050565b7f4e487b7100000000000000000000000000000000000000000000000000000000600052601160045260246000fd5b7f4e487b7100000000000000000000000000000000000000000000000000000000600052601260045260246000fd5b7f6974656d20616c726561647920736f6c64000000000000000000000000000000600082015250565b7f6974656d20646f65736e27742065786973747300000000000000000000000000600082015250565b7f5072696365206d7573742062652067726561746572207468616e207a65726f00600082015250565b7f6e6f7420656e6f75676820657468657220746f20636f7665722074686520697460008201527f656d20707269636520616e64206d61726b657420666565000000000000000000602082015250565b7f5265656e7472616e637947756172643a207265656e7472616e742063616c6c00600082015250565b61109c81610e99565b81146110a757600080fd5b50565b6110b381610ecb565b81146110be57600080fd5b5056fea2646970667358221220ef8cb3e7c48eeed4dd8738060498668254ac9ba29367f47aa3d37adc493d08e764736f6c63430008040033",
  "linkReferences": {},
  "deployedLinkReferences": {}
}